{
  "_format": "hh-sol-artifact-1",
  "contractName": "LUSDTokenTester",
  "sourceName": "contracts/TestContracts/LUSDTokenTester.sol",
  "abi": [
    {
      "inputs": [
        {
          "internalType": "address",
          "name": "_troveManagerAddress",
          "type": "address"
        },
        {
          "internalType": "address",
          "name": "_stabilityPoolAddress",
          "type": "address"
        },
        {
          "internalType": "address",
          "name": "_borrowerOperationsAddress",
          "type": "address"
        }
      ],
      "stateMutability": "nonpayable",
      "type": "constructor"
    },
    {
      "anonymous": false,
      "inputs": [
        {
          "indexed": true,
          "internalType": "address",
          "name": "owner",
          "type": "address"
        },
        {
          "indexed": true,
          "internalType": "address",
          "name": "spender",
          "type": "address"
        },
        {
          "indexed": false,
          "internalType": "uint256",
          "name": "value",
          "type": "uint256"
        }
      ],
      "name": "Approval",
      "type": "event"
    },
    {
      "anonymous": false,
      "inputs": [
        {
          "indexed": false,
          "internalType": "address",
          "name": "_newBorrowerOperationsAddress",
          "type": "address"
        }
      ],
      "name": "BorrowerOperationsAddressChanged",
      "type": "event"
    },
    {
      "anonymous": false,
      "inputs": [
        {
          "indexed": false,
          "internalType": "address",
          "name": "_user",
          "type": "address"
        },
        {
          "indexed": false,
          "internalType": "uint256",
          "name": "_amount",
          "type": "uint256"
        }
      ],
      "name": "LUSDTokenBalanceUpdated",
      "type": "event"
    },
    {
      "anonymous": false,
      "inputs": [
        {
          "indexed": false,
          "internalType": "address",
          "name": "_newStabilityPoolAddress",
          "type": "address"
        }
      ],
      "name": "StabilityPoolAddressChanged",
      "type": "event"
    },
    {
      "anonymous": false,
      "inputs": [
        {
          "indexed": true,
          "internalType": "address",
          "name": "from",
          "type": "address"
        },
        {
          "indexed": true,
          "internalType": "address",
          "name": "to",
          "type": "address"
        },
        {
          "indexed": false,
          "internalType": "uint256",
          "name": "value",
          "type": "uint256"
        }
      ],
      "name": "Transfer",
      "type": "event"
    },
    {
      "anonymous": false,
      "inputs": [
        {
          "indexed": false,
          "internalType": "address",
          "name": "_troveManagerAddress",
          "type": "address"
        }
      ],
      "name": "TroveManagerAddressChanged",
      "type": "event"
    },
    {
      "inputs": [
        {
          "internalType": "address",
          "name": "owner",
          "type": "address"
        },
        {
          "internalType": "address",
          "name": "spender",
          "type": "address"
        }
      ],
      "name": "allowance",
      "outputs": [
        {
          "internalType": "uint256",
          "name": "",
          "type": "uint256"
        }
      ],
      "stateMutability": "view",
      "type": "function"
    },
    {
      "inputs": [
        {
          "internalType": "address",
          "name": "spender",
          "type": "address"
        },
        {
          "internalType": "uint256",
          "name": "amount",
          "type": "uint256"
        }
      ],
      "name": "approve",
      "outputs": [
        {
          "internalType": "bool",
          "name": "",
          "type": "bool"
        }
      ],
      "stateMutability": "nonpayable",
      "type": "function"
    },
    {
      "inputs": [
        {
          "internalType": "address",
          "name": "account",
          "type": "address"
        }
      ],
      "name": "balanceOf",
      "outputs": [
        {
          "internalType": "uint256",
          "name": "",
          "type": "uint256"
        }
      ],
      "stateMutability": "view",
      "type": "function"
    },
    {
      "inputs": [],
      "name": "borrowerOperationsAddress",
      "outputs": [
        {
          "internalType": "address",
          "name": "",
          "type": "address"
        }
      ],
      "stateMutability": "view",
      "type": "function"
    },
    {
      "inputs": [
        {
          "internalType": "address",
          "name": "_account",
          "type": "address"
        },
        {
          "internalType": "uint256",
          "name": "_amount",
          "type": "uint256"
        }
      ],
      "name": "burn",
      "outputs": [],
      "stateMutability": "nonpayable",
      "type": "function"
    },
    {
      "inputs": [
        {
          "internalType": "address",
          "name": "owner",
          "type": "address"
        },
        {
          "internalType": "address",
          "name": "spender",
          "type": "address"
        },
        {
          "internalType": "uint256",
          "name": "amount",
          "type": "uint256"
        }
      ],
      "name": "callInternalApprove",
      "outputs": [
        {
          "internalType": "bool",
          "name": "",
          "type": "bool"
        }
      ],
      "stateMutability": "nonpayable",
      "type": "function"
    },
    {
      "inputs": [],
      "name": "decimals",
      "outputs": [
        {
          "internalType": "uint8",
          "name": "",
          "type": "uint8"
        }
      ],
      "stateMutability": "view",
      "type": "function"
    },
    {
      "inputs": [
        {
          "internalType": "address",
          "name": "spender",
          "type": "address"
        },
        {
          "internalType": "uint256",
          "name": "subtractedValue",
          "type": "uint256"
        }
      ],
      "name": "decreaseAllowance",
      "outputs": [
        {
          "internalType": "bool",
          "name": "",
          "type": "bool"
        }
      ],
      "stateMutability": "nonpayable",
      "type": "function"
    },
    {
      "inputs": [],
      "name": "domainSeparator",
      "outputs": [
        {
          "internalType": "bytes32",
          "name": "",
          "type": "bytes32"
        }
      ],
      "stateMutability": "view",
      "type": "function"
    },
    {
      "inputs": [],
      "name": "getChainId",
      "outputs": [
        {
          "internalType": "uint256",
          "name": "chainID",
          "type": "uint256"
        }
      ],
      "stateMutability": "pure",
      "type": "function"
    },
    {
      "inputs": [
        {
          "internalType": "address",
          "name": "owner",
          "type": "address"
        },
        {
          "internalType": "address",
          "name": "spender",
          "type": "address"
        },
        {
          "internalType": "uint256",
          "name": "amount",
          "type": "uint256"
        },
        {
          "internalType": "uint256",
          "name": "nonce",
          "type": "uint256"
        },
        {
          "internalType": "uint256",
          "name": "deadline",
          "type": "uint256"
        }
      ],
      "name": "getDigest",
      "outputs": [
        {
          "internalType": "bytes32",
          "name": "",
          "type": "bytes32"
        }
      ],
      "stateMutability": "view",
      "type": "function"
    },
    {
      "inputs": [
        {
          "internalType": "address",
          "name": "spender",
          "type": "address"
        },
        {
          "internalType": "uint256",
          "name": "addedValue",
          "type": "uint256"
        }
      ],
      "name": "increaseAllowance",
      "outputs": [
        {
          "internalType": "bool",
          "name": "",
          "type": "bool"
        }
      ],
      "stateMutability": "nonpayable",
      "type": "function"
    },
    {
      "inputs": [
        {
          "internalType": "address",
          "name": "_account",
          "type": "address"
        },
        {
          "internalType": "uint256",
          "name": "_amount",
          "type": "uint256"
        }
      ],
      "name": "mint",
      "outputs": [],
      "stateMutability": "nonpayable",
      "type": "function"
    },
    {
      "inputs": [],
      "name": "name",
      "outputs": [
        {
          "internalType": "string",
          "name": "",
          "type": "string"
        }
      ],
      "stateMutability": "view",
      "type": "function"
    },
    {
      "inputs": [
        {
          "internalType": "address",
          "name": "owner",
          "type": "address"
        }
      ],
      "name": "nonces",
      "outputs": [
        {
          "internalType": "uint256",
          "name": "",
          "type": "uint256"
        }
      ],
      "stateMutability": "view",
      "type": "function"
    },
    {
      "inputs": [
        {
          "internalType": "address",
          "name": "owner",
          "type": "address"
        },
        {
          "internalType": "address",
          "name": "spender",
          "type": "address"
        },
        {
          "internalType": "uint256",
          "name": "amount",
          "type": "uint256"
        },
        {
          "internalType": "uint256",
          "name": "deadline",
          "type": "uint256"
        },
        {
          "internalType": "uint8",
          "name": "v",
          "type": "uint8"
        },
        {
          "internalType": "bytes32",
          "name": "r",
          "type": "bytes32"
        },
        {
          "internalType": "bytes32",
          "name": "s",
          "type": "bytes32"
        }
      ],
      "name": "permit",
      "outputs": [],
      "stateMutability": "nonpayable",
      "type": "function"
    },
    {
      "inputs": [],
      "name": "permitTypeHash",
      "outputs": [
        {
          "internalType": "bytes32",
          "name": "",
          "type": "bytes32"
        }
      ],
      "stateMutability": "view",
      "type": "function"
    },
    {
      "inputs": [
        {
          "internalType": "bytes32",
          "name": "digest",
          "type": "bytes32"
        },
        {
          "internalType": "uint8",
          "name": "v",
          "type": "uint8"
        },
        {
          "internalType": "bytes32",
          "name": "r",
          "type": "bytes32"
        },
        {
          "internalType": "bytes32",
          "name": "s",
          "type": "bytes32"
        }
      ],
      "name": "recoverAddress",
      "outputs": [
        {
          "internalType": "address",
          "name": "",
          "type": "address"
        }
      ],
      "stateMutability": "pure",
      "type": "function"
    },
    {
      "inputs": [
        {
          "internalType": "address",
          "name": "_poolAddress",
          "type": "address"
        },
        {
          "internalType": "address",
          "name": "_receiver",
          "type": "address"
        },
        {
          "internalType": "uint256",
          "name": "_amount",
          "type": "uint256"
        }
      ],
      "name": "returnFromPool",
      "outputs": [],
      "stateMutability": "nonpayable",
      "type": "function"
    },
    {
      "inputs": [
        {
          "internalType": "address",
          "name": "_sender",
          "type": "address"
        },
        {
          "internalType": "address",
          "name": "_poolAddress",
          "type": "address"
        },
        {
          "internalType": "uint256",
          "name": "_amount",
          "type": "uint256"
        }
      ],
      "name": "sendToPool",
      "outputs": [],
      "stateMutability": "nonpayable",
      "type": "function"
    },
    {
      "inputs": [],
      "name": "stabilityPoolAddress",
      "outputs": [
        {
          "internalType": "address",
          "name": "",
          "type": "address"
        }
      ],
      "stateMutability": "view",
      "type": "function"
    },
    {
      "inputs": [],
      "name": "symbol",
      "outputs": [
        {
          "internalType": "string",
          "name": "",
          "type": "string"
        }
      ],
      "stateMutability": "view",
      "type": "function"
    },
    {
      "inputs": [],
      "name": "totalSupply",
      "outputs": [
        {
          "internalType": "uint256",
          "name": "",
          "type": "uint256"
        }
      ],
      "stateMutability": "view",
      "type": "function"
    },
    {
      "inputs": [
        {
          "internalType": "address",
          "name": "recipient",
          "type": "address"
        },
        {
          "internalType": "uint256",
          "name": "amount",
          "type": "uint256"
        }
      ],
      "name": "transfer",
      "outputs": [
        {
          "internalType": "bool",
          "name": "",
          "type": "bool"
        }
      ],
      "stateMutability": "nonpayable",
      "type": "function"
    },
    {
      "inputs": [
        {
          "internalType": "address",
          "name": "sender",
          "type": "address"
        },
        {
          "internalType": "address",
          "name": "recipient",
          "type": "address"
        },
        {
          "internalType": "uint256",
          "name": "amount",
          "type": "uint256"
        }
      ],
      "name": "transferFrom",
      "outputs": [
        {
          "internalType": "bool",
          "name": "",
          "type": "bool"
        }
      ],
      "stateMutability": "nonpayable",
      "type": "function"
    },
    {
      "inputs": [],
      "name": "troveManagerAddress",
      "outputs": [
        {
          "internalType": "address",
          "name": "",
          "type": "address"
        }
      ],
      "stateMutability": "view",
      "type": "function"
    },
    {
      "inputs": [
        {
          "internalType": "address",
          "name": "_account",
          "type": "address"
        },
        {
          "internalType": "uint256",
          "name": "_amount",
          "type": "uint256"
        }
      ],
      "name": "unprotectedBurn",
      "outputs": [],
      "stateMutability": "nonpayable",
      "type": "function"
    },
    {
      "inputs": [
        {
          "internalType": "address",
          "name": "_account",
          "type": "address"
        },
        {
          "internalType": "uint256",
          "name": "_amount",
          "type": "uint256"
        }
      ],
      "name": "unprotectedMint",
      "outputs": [],
      "stateMutability": "nonpayable",
      "type": "function"
    },
    {
      "inputs": [
        {
          "internalType": "address",
          "name": "_poolAddress",
          "type": "address"
        },
        {
          "internalType": "address",
          "name": "_receiver",
          "type": "address"
        },
        {
          "internalType": "uint256",
          "name": "_amount",
          "type": "uint256"
        }
      ],
      "name": "unprotectedReturnFromPool",
      "outputs": [],
      "stateMutability": "nonpayable",
      "type": "function"
    },
    {
      "inputs": [
        {
          "internalType": "address",
          "name": "_sender",
          "type": "address"
        },
        {
          "internalType": "address",
          "name": "_poolAddress",
          "type": "address"
        },
        {
          "internalType": "uint256",
          "name": "_amount",
          "type": "uint256"
        }
      ],
      "name": "unprotectedSendToPool",
      "outputs": [],
      "stateMutability": "nonpayable",
      "type": "function"
    },
    {
      "inputs": [],
      "name": "version",
      "outputs": [
        {
          "internalType": "string",
          "name": "",
          "type": "string"
        }
      ],
      "stateMutability": "view",
      "type": "function"
    }
  ],
  "bytecode": "0x6101806040527f6e71edae12b1b97f4d1f60370fef10105fa2faae0126114a169c64845d6126c9610160523480156200003757600080fd5b5060405162001bc038038062001bc0833981810160405260608110156200005d57600080fd5b508051602082015160409092015190919082828262000085836001600160e01b036200027f16565b62000099826001600160e01b036200027f16565b620000ad816001600160e01b036200027f16565b6001600160601b0319606084901b1661010052604080516001600160a01b038516815290517f143219c9e69b09e07e095fcc889b43d8f46ca892bba65f08dc3a0050869a56789181900360200190a16001600160601b0319606083901b1661012052604080516001600160a01b038416815290517f82966d27eea39b038ee0fa30cd16532bb24f6e65d31cb58fb227aa5766cdcc7f9181900360200190a16001600160601b0319606082901b1661014052604080516001600160a01b038316815290517f3ca631ffcd2a9b5d9ae18543fc82f58eb4ca33af9e6ab01b7a8e95331e6ed9859181900360200190a1604080518082018252601081526f28262aa9a21029ba30b13632b1b7b4b760811b602091820152815180830190925260018252603160f81b9101527fbdd4674dbfed6595ba571c09cde4ae185031f6d7809695a48aba567fae65653d60c08190527fc89efdaa54c0f20c7adf612882df0950f5a951637e0307cdcb4c672f298b8bc660e0819052620002346001600160e01b036200033416565b60a0526200026d7f8b73c3c69bb8fe3d512ecc4cf759cc79239f7b179b0ffacaa9a75d522b39400f83836001600160e01b036200033816565b60805250620003999650505050505050565b6001600160a01b038116620002db576040805162461bcd60e51b815260206004820152601e60248201527f4163636f756e742063616e6e6f74206265207a65726f20616464726573730000604482015290519081900360640190fd5b803b8062000330576040805162461bcd60e51b815260206004820181905260248201527f4163636f756e7420636f64652073697a652063616e6e6f74206265207a65726f604482015290519081900360640190fd5b5050565b4690565b6000838383620003506001600160e01b036200033416565b6040805160208082019690965280820194909452606084019290925260808301523060a0808401919091528151808403909101815260c090920190528051910120949350505050565b60805160a05160c05160e0516101005160601c6101205160601c6101405160601c6101605161178e6200043260003980610829525080610a545280611043528061126852806113635250806106d55280610e295280610fc852806113c852806114305250806108fc5280610df752806110055280611395525080610d3f525080610d1e525080610ca4525080610cd4525061178e6000f3fe608060405234801561001057600080fd5b50600436106101a55760003560e01c8063519e2cee116100ef578063a457c2d711610092578063a457c2d714610561578063a9059cbb1461058d578063b655c276146103cf578063b7f8cf9b146105b9578063bb997bac146105c1578063d505accf146105f7578063dd62ed3e14610648578063f698da2514610676576101a5565b8063519e2cee1461045d57806354fd4d501461049f5780635a4d28bb146104a757806370a08231146104af5780637ecebe00146104d55780638428cf83146104fb57806395d89b411461052d5780639dc29fac14610535576101a5565b806323b872dd1161015757806323b872dd1461031b578063313ce567146103515780633408e4701461036f57806339509351146103775780633ab60582146103a35780633dc2ea6d146103cf57806340c10f19146104055780635099f99f14610431576101a5565b806303d99946146101aa57806306fdde03146101f4578063095ea7b3146102715780630b622ab21461029d57806310ce43bd146102c157806318160ddd146102db57806320c582be146102e3575b600080fd5b6101e0600480360360608110156101c057600080fd5b506001600160a01b0381358116916020810135909116906040013561067e565b604080519115158252519081900360200190f35b6101fc610692565b6040805160208082528351818301528351919283929083019185019080838360005b8381101561023657818101518382015260200161021e565b50505050905090810190601f1680156102635780820380516001836020036101000a031916815260200191505b509250505060405180910390f35b6101e06004803603604081101561028757600080fd5b506001600160a01b0381351690602001356106bd565b6102a56106d3565b604080516001600160a01b039092168252519081900360200190f35b6102c96106f7565b60408051918252519081900360200190f35b6102c961071b565b610319600480360360608110156102f957600080fd5b506001600160a01b03813581169160208101359091169060400135610721565b005b6101e06004803603606081101561033157600080fd5b506001600160a01b03813581169160208101359091169060400135610739565b6103596107b1565b6040805160ff9092168252519081900360200190f35b6102c96107b6565b6101e06004803603604081101561038d57600080fd5b506001600160a01b0381351690602001356107ba565b610319600480360360408110156103b957600080fd5b506001600160a01b0381351690602001356107f6565b610319600480360360608110156103e557600080fd5b506001600160a01b03813581169160208101359091169060400135610729565b6103196004803603604081101561041b57600080fd5b506001600160a01b038135169060200135610804565b6103196004803603604081101561044757600080fd5b506001600160a01b03813516906020013561080c565b6102c9600480360360a081101561047357600080fd5b506001600160a01b03813581169160208101359091169060408101359060608101359060800135610816565b6101fc6108df565b6102a56108fa565b6102c9600480360360208110156104c557600080fd5b50356001600160a01b031661091e565b6102c9600480360360208110156104eb57600080fd5b50356001600160a01b0316610939565b6102a56004803603608081101561051157600080fd5b5080359060ff6020820135169060408101359060600135610954565b6101fc6109c0565b6103196004803603604081101561054b57600080fd5b506001600160a01b0381351690602001356109df565b6101e06004803603604081101561057757600080fd5b506001600160a01b0381351690602001356109e7565b6101e0600480360360408110156105a357600080fd5b506001600160a01b038135169060200135610a3c565b6102a5610a52565b610319600480360360608110156105d757600080fd5b506001600160a01b03813581169160208101359091169060400135610a76565b610319600480360360e081101561060d57600080fd5b506001600160a01b03813581169160208101359091169060408101359060608101359060ff6080820135169060a08101359060c00135610a7e565b6102c96004803603604081101561065e57600080fd5b506001600160a01b0381358116916020013516610c75565b6102c9610ca0565b600061068b848484610d6a565b9392505050565b60408051808201909152601081526f28262aa9a21029ba30b13632b1b7b4b760811b60208201525b90565b60006106ca338484610d6a565b50600192915050565b7f000000000000000000000000000000000000000000000000000000000000000081565b7f6e71edae12b1b97f4d1f60370fef10105fa2faae0126114a169c64845d6126c990565b60005490565b610729610dec565b610734838383610e88565b505050565b600061074483610f6a565b61074f848484610e88565b6107a784336107a285604051806060016040528060288152602001611615602891396001600160a01b038a166000908152600360209081526040808320338452909152902054919063ffffffff6110b616565b610d6a565b5060019392505050565b601290565b4690565b3360008181526003602090815260408083206001600160a01b038716845290915281205490916106ca9185906107a2908663ffffffff61114d16565b61080082826111a7565b5050565b61080c61125d565b61080082826112c4565b6000611901610823610ca0565b604080517f00000000000000000000000000000000000000000000000000000000000000006020808301919091526001600160a01b03808c16838501528a1660608301526080820189905260a0820188905260c08083018890528351808403909101815260e0830184528051908201206001600160f01b031960f09690961b9590951661010083015261010282019390935261012280820194909452815180820390940184526101420190528151910120905095945050505050565b6040805180820190915260018152603160f81b602082015290565b7f000000000000000000000000000000000000000000000000000000000000000081565b6001600160a01b031660009081526002602052604090205490565b6001600160a01b031660009081526001602052604090205490565b604080516000808252602080830180855288905260ff87168385015260608301869052608083018590529251909260019260a080820193601f1981019281900390910190855afa1580156109ac573d6000803e3d6000fd5b5050604051601f1901519695505050505050565b60408051808201909152600581526414131554d160da1b602082015290565b6107f6611358565b60006106ca33846107a2856040518060600160405280602581526020016116e0602591393360009081526003602090815260408083206001600160a01b038d168452909152902054919063ffffffff6110b616565b6000610a4783610f6a565b6106ca338484610e88565b7f000000000000000000000000000000000000000000000000000000000000000081565b610729611425565b42841015610acc576040805162461bcd60e51b81526020600482015260166024820152754c5553443a206578706972656420646561646c696e6560501b604482015290519081900360640190fd5b6000610ad6610ca0565b6001600160a01b03808a166000818152600160208181526040808420805480850190915581517f6e71edae12b1b97f4d1f60370fef10105fa2faae0126114a169c64845d6126c98185015280830196909652958e166060860152608085018d905260a085019590955260c08085018c90528551808603909101815260e08501865280519082012061190160f01b6101008601526101028501969096526101228085019690965284518085039096018652610142840180865286519682019690962095839052610162840180865286905260ff8a166101828501526101a284018990526101c284018890529351949550909390926101e2808401939192601f1981019281900390910190855afa158015610bf3573d6000803e3d6000fd5b505050602060405103519050886001600160a01b0316816001600160a01b031614610c5f576040805162461bcd60e51b81526020600482015260176024820152764c5553443a20696e76616c6964207369676e617475726560481b604482015290519081900360640190fd5b610c6a898989610d6a565b505050505050505050565b6001600160a01b03918216600090815260036020908152604080832093909416825291909152205490565b60007f0000000000000000000000000000000000000000000000000000000000000000610ccb6107b6565b1415610cf857507f00000000000000000000000000000000000000000000000000000000000000006106ba565b610d637f8b73c3c69bb8fe3d512ecc4cf759cc79239f7b179b0ffacaa9a75d522b39400f7f00000000000000000000000000000000000000000000000000000000000000007f000000000000000000000000000000000000000000000000000000000000000061148c565b90506106ba565b6001600160a01b038316610d7a57fe5b6001600160a01b038216610d8a57fe5b6001600160a01b03808416600081815260036020908152604080832094871680845294825291829020859055815185815291517f8c5be1e5ebec7d5bd14f71427d1e84f3dd0314c0f7b2291e5b200ac8c7c3b9259281900390910190a3505050565b336001600160a01b037f0000000000000000000000000000000000000000000000000000000000000000161480610e4b5750336001600160a01b037f000000000000000000000000000000000000000000000000000000000000000016145b610e865760405162461bcd60e51b81526004018080602001828103825260368152602001806115256036913960400191505060405180910390fd5b565b6001600160a01b038316610e9857fe5b6001600160a01b038216610ea857fe5b610eeb8160405180606001604052806026815260200161157d602691396001600160a01b038616600090815260026020526040902054919063ffffffff6110b616565b6001600160a01b038085166000908152600260205260408082209390935590841681522054610f20908263ffffffff61114d16565b6001600160a01b03808416600081815260026020908152604091829020949094558051858152905191939287169260008051602061169483398151915292918290030190a3505050565b6001600160a01b03811615801590610f8b57506001600160a01b0381163014155b610fc65760405162461bcd60e51b81526004018080602001828103825260548152602001806117056054913960600191505060405180910390fd5b7f00000000000000000000000000000000000000000000000000000000000000006001600160a01b0316816001600160a01b03161415801561103a57507f00000000000000000000000000000000000000000000000000000000000000006001600160a01b0316816001600160a01b031614155b801561107857507f00000000000000000000000000000000000000000000000000000000000000006001600160a01b0316816001600160a01b031614155b6110b35760405162461bcd60e51b815260040180806020018281038252605781526020018061163d6057913960600191505060405180910390fd5b50565b600081848411156111455760405162461bcd60e51b81526004018080602001828103825283818151815260200191508051906020019080838360005b8381101561110a5781810151838201526020016110f2565b50505050905090810190601f1680156111375780820380516001836020036101000a031916815260200191505b509250505060405180910390fd5b505050900390565b60008282018381101561068b576040805162461bcd60e51b815260206004820152601b60248201527f536166654d6174683a206164646974696f6e206f766572666c6f770000000000604482015290519081900360640190fd5b6001600160a01b0382166111b757fe5b6111fa8160405180606001604052806022815260200161155b602291396001600160a01b038516600090815260026020526040902054919063ffffffff6110b616565b6001600160a01b03831660009081526002602052604081209190915554611227908263ffffffff6114e216565b60009081556040805183815290516001600160a01b03851691600080516020611694833981519152919081900360200190a35050565b336001600160a01b037f00000000000000000000000000000000000000000000000000000000000000001614610e865760405162461bcd60e51b815260040180806020018281038252602c8152602001806116b4602c913960400191505060405180910390fd5b6001600160a01b0382166112d457fe5b6000546112e7908263ffffffff61114d16565b60009081556001600160a01b038316815260026020526040902054611312908263ffffffff61114d16565b6001600160a01b03831660008181526002602090815260408083209490945583518581529351929391926000805160206116948339815191529281900390910190a35050565b336001600160a01b037f00000000000000000000000000000000000000000000000000000000000000001614806113b75750336001600160a01b037f000000000000000000000000000000000000000000000000000000000000000016145b806113ea5750336001600160a01b037f000000000000000000000000000000000000000000000000000000000000000016145b610e865760405162461bcd60e51b815260040180806020018281038252604d8152602001806115a3604d913960600191505060405180910390fd5b336001600160a01b037f00000000000000000000000000000000000000000000000000000000000000001614610e865760405162461bcd60e51b81526004018080602001828103825260258152602001806115f06025913960400191505060405180910390fd5b60008383836114996107b6565b6040805160208082019690965280820194909452606084019290925260808301523060a0808401919091528151808403909101815260c090920190528051910120949350505050565b600061068b83836040518060400160405280601e81526020017f536166654d6174683a207375627472616374696f6e206f766572666c6f7700008152506110b656fe4c5553443a2043616c6c6572206973206e6569746865722054726f76654d616e61676572206e6f722053746162696c697479506f6f6c45524332303a206275726e20616d6f756e7420657863656564732062616c616e636545524332303a207472616e7366657220616d6f756e7420657863656564732062616c616e63654c5553443a2043616c6c6572206973206e65697468657220426f72726f7765724f7065726174696f6e73206e6f722054726f76654d616e61676572206e6f722053746162696c697479506f6f6c4c5553443a2043616c6c6572206973206e6f74207468652053746162696c697479506f6f6c45524332303a207472616e7366657220616d6f756e74206578636565647320616c6c6f77616e63654c5553443a2043616e6e6f74207472616e7366657220746f6b656e73206469726563746c7920746f207468652053746162696c697479506f6f6c2c2054726f76654d616e61676572206f7220426f72726f7765724f7073ddf252ad1be2c89b69c2b068fc378daa952ba7f163c4a11628f55a4df523b3ef504c555344546f6b656e3a2043616c6c6572206973206e6f7420426f72726f7765724f7065726174696f6e7345524332303a2064656372656173656420616c6c6f77616e63652062656c6f77207a65726f4c5553443a2043616e6e6f74207472616e7366657220746f6b656e73206469726563746c7920746f20746865204c55534420746f6b656e20636f6e7472616374206f7220746865207a65726f2061646472657373a2646970667358221220fbbd6a7b2c994ee9031c80c0a28bf1d10226963a8add5286d8bd60963902820a64736f6c634300060b0033",
  "linkReferences": {},
  "deployedLinkReferences": {}
}