{
  "_format": "hh-sol-artifact-1",
  "contractName": "PLQTYToken",
  "sourceName": "contracts/LQTY/PLQTYToken.sol",
  "abi": [
    {
      "inputs": [
        {
          "internalType": "address",
          "name": "_communityIssuanceAddress",
          "type": "address"
        },
        {
          "internalType": "address",
          "name": "_lqtyStakingAddress",
          "type": "address"
        },
        {
          "internalType": "address",
          "name": "_lockupFactoryAddress",
          "type": "address"
        },
        {
          "internalType": "address",
          "name": "_bountyAddress",
          "type": "address"
        },
        {
          "internalType": "address",
          "name": "_lpRewardsAddress",
          "type": "address"
        },
        {
          "internalType": "address",
          "name": "_multisigAddress",
          "type": "address"
        }
      ],
      "stateMutability": "nonpayable",
      "type": "constructor"
    },
    {
      "anonymous": false,
      "inputs": [
        {
          "indexed": true,
          "internalType": "address",
          "name": "owner",
          "type": "address"
        },
        {
          "indexed": true,
          "internalType": "address",
          "name": "spender",
          "type": "address"
        },
        {
          "indexed": false,
          "internalType": "uint256",
          "name": "value",
          "type": "uint256"
        }
      ],
      "name": "Approval",
      "type": "event"
    },
    {
      "anonymous": false,
      "inputs": [
        {
          "indexed": false,
          "internalType": "address",
          "name": "_communityIssuanceAddress",
          "type": "address"
        }
      ],
      "name": "CommunityIssuanceAddressSet",
      "type": "event"
    },
    {
      "anonymous": false,
      "inputs": [
        {
          "indexed": false,
          "internalType": "address",
          "name": "_lqtyStakingAddress",
          "type": "address"
        }
      ],
      "name": "LQTYStakingAddressSet",
      "type": "event"
    },
    {
      "anonymous": false,
      "inputs": [
        {
          "indexed": false,
          "internalType": "address",
          "name": "_lockupContractFactoryAddress",
          "type": "address"
        }
      ],
      "name": "LockupContractFactoryAddressSet",
      "type": "event"
    },
    {
      "anonymous": false,
      "inputs": [
        {
          "indexed": true,
          "internalType": "address",
          "name": "from",
          "type": "address"
        },
        {
          "indexed": true,
          "internalType": "address",
          "name": "to",
          "type": "address"
        },
        {
          "indexed": false,
          "internalType": "uint256",
          "name": "value",
          "type": "uint256"
        }
      ],
      "name": "Transfer",
      "type": "event"
    },
    {
      "inputs": [],
      "name": "ONE_YEAR_IN_SECONDS",
      "outputs": [
        {
          "internalType": "uint256",
          "name": "",
          "type": "uint256"
        }
      ],
      "stateMutability": "view",
      "type": "function"
    },
    {
      "inputs": [
        {
          "internalType": "address",
          "name": "owner",
          "type": "address"
        },
        {
          "internalType": "address",
          "name": "spender",
          "type": "address"
        }
      ],
      "name": "allowance",
      "outputs": [
        {
          "internalType": "uint256",
          "name": "",
          "type": "uint256"
        }
      ],
      "stateMutability": "view",
      "type": "function"
    },
    {
      "inputs": [
        {
          "internalType": "address",
          "name": "spender",
          "type": "address"
        },
        {
          "internalType": "uint256",
          "name": "amount",
          "type": "uint256"
        }
      ],
      "name": "approve",
      "outputs": [
        {
          "internalType": "bool",
          "name": "",
          "type": "bool"
        }
      ],
      "stateMutability": "nonpayable",
      "type": "function"
    },
    {
      "inputs": [
        {
          "internalType": "address",
          "name": "account",
          "type": "address"
        }
      ],
      "name": "balanceOf",
      "outputs": [
        {
          "internalType": "uint256",
          "name": "",
          "type": "uint256"
        }
      ],
      "stateMutability": "view",
      "type": "function"
    },
    {
      "inputs": [],
      "name": "communityIssuanceAddress",
      "outputs": [
        {
          "internalType": "address",
          "name": "",
          "type": "address"
        }
      ],
      "stateMutability": "view",
      "type": "function"
    },
    {
      "inputs": [],
      "name": "decimals",
      "outputs": [
        {
          "internalType": "uint8",
          "name": "",
          "type": "uint8"
        }
      ],
      "stateMutability": "view",
      "type": "function"
    },
    {
      "inputs": [
        {
          "internalType": "address",
          "name": "spender",
          "type": "address"
        },
        {
          "internalType": "uint256",
          "name": "subtractedValue",
          "type": "uint256"
        }
      ],
      "name": "decreaseAllowance",
      "outputs": [
        {
          "internalType": "bool",
          "name": "",
          "type": "bool"
        }
      ],
      "stateMutability": "nonpayable",
      "type": "function"
    },
    {
      "inputs": [],
      "name": "domainSeparator",
      "outputs": [
        {
          "internalType": "bytes32",
          "name": "",
          "type": "bytes32"
        }
      ],
      "stateMutability": "view",
      "type": "function"
    },
    {
      "inputs": [],
      "name": "getDeploymentStartTime",
      "outputs": [
        {
          "internalType": "uint256",
          "name": "",
          "type": "uint256"
        }
      ],
      "stateMutability": "view",
      "type": "function"
    },
    {
      "inputs": [],
      "name": "getLpRewardsEntitlement",
      "outputs": [
        {
          "internalType": "uint256",
          "name": "",
          "type": "uint256"
        }
      ],
      "stateMutability": "view",
      "type": "function"
    },
    {
      "inputs": [
        {
          "internalType": "address",
          "name": "spender",
          "type": "address"
        },
        {
          "internalType": "uint256",
          "name": "addedValue",
          "type": "uint256"
        }
      ],
      "name": "increaseAllowance",
      "outputs": [
        {
          "internalType": "bool",
          "name": "",
          "type": "bool"
        }
      ],
      "stateMutability": "nonpayable",
      "type": "function"
    },
    {
      "inputs": [],
      "name": "lockupContractFactory",
      "outputs": [
        {
          "internalType": "contract ILockupContractFactory",
          "name": "",
          "type": "address"
        }
      ],
      "stateMutability": "view",
      "type": "function"
    },
    {
      "inputs": [],
      "name": "lqtyStakingAddress",
      "outputs": [
        {
          "internalType": "address",
          "name": "",
          "type": "address"
        }
      ],
      "stateMutability": "view",
      "type": "function"
    },
    {
      "inputs": [],
      "name": "multisigAddress",
      "outputs": [
        {
          "internalType": "address",
          "name": "",
          "type": "address"
        }
      ],
      "stateMutability": "view",
      "type": "function"
    },
    {
      "inputs": [],
      "name": "name",
      "outputs": [
        {
          "internalType": "string",
          "name": "",
          "type": "string"
        }
      ],
      "stateMutability": "view",
      "type": "function"
    },
    {
      "inputs": [
        {
          "internalType": "address",
          "name": "owner",
          "type": "address"
        }
      ],
      "name": "nonces",
      "outputs": [
        {
          "internalType": "uint256",
          "name": "",
          "type": "uint256"
        }
      ],
      "stateMutability": "view",
      "type": "function"
    },
    {
      "inputs": [
        {
          "internalType": "address",
          "name": "owner",
          "type": "address"
        },
        {
          "internalType": "address",
          "name": "spender",
          "type": "address"
        },
        {
          "internalType": "uint256",
          "name": "amount",
          "type": "uint256"
        },
        {
          "internalType": "uint256",
          "name": "deadline",
          "type": "uint256"
        },
        {
          "internalType": "uint8",
          "name": "v",
          "type": "uint8"
        },
        {
          "internalType": "bytes32",
          "name": "r",
          "type": "bytes32"
        },
        {
          "internalType": "bytes32",
          "name": "s",
          "type": "bytes32"
        }
      ],
      "name": "permit",
      "outputs": [],
      "stateMutability": "nonpayable",
      "type": "function"
    },
    {
      "inputs": [],
      "name": "permitTypeHash",
      "outputs": [
        {
          "internalType": "bytes32",
          "name": "",
          "type": "bytes32"
        }
      ],
      "stateMutability": "view",
      "type": "function"
    },
    {
      "inputs": [
        {
          "internalType": "address",
          "name": "_sender",
          "type": "address"
        },
        {
          "internalType": "uint256",
          "name": "_amount",
          "type": "uint256"
        }
      ],
      "name": "sendToLQTYStaking",
      "outputs": [],
      "stateMutability": "nonpayable",
      "type": "function"
    },
    {
      "inputs": [],
      "name": "symbol",
      "outputs": [
        {
          "internalType": "string",
          "name": "",
          "type": "string"
        }
      ],
      "stateMutability": "view",
      "type": "function"
    },
    {
      "inputs": [],
      "name": "totalSupply",
      "outputs": [
        {
          "internalType": "uint256",
          "name": "",
          "type": "uint256"
        }
      ],
      "stateMutability": "view",
      "type": "function"
    },
    {
      "inputs": [
        {
          "internalType": "address",
          "name": "recipient",
          "type": "address"
        },
        {
          "internalType": "uint256",
          "name": "amount",
          "type": "uint256"
        }
      ],
      "name": "transfer",
      "outputs": [
        {
          "internalType": "bool",
          "name": "",
          "type": "bool"
        }
      ],
      "stateMutability": "nonpayable",
      "type": "function"
    },
    {
      "inputs": [
        {
          "internalType": "address",
          "name": "sender",
          "type": "address"
        },
        {
          "internalType": "address",
          "name": "recipient",
          "type": "address"
        },
        {
          "internalType": "uint256",
          "name": "amount",
          "type": "uint256"
        }
      ],
      "name": "transferFrom",
      "outputs": [
        {
          "internalType": "bool",
          "name": "",
          "type": "bool"
        }
      ],
      "stateMutability": "nonpayable",
      "type": "function"
    },
    {
      "inputs": [],
      "name": "version",
      "outputs": [
        {
          "internalType": "string",
          "name": "",
          "type": "string"
        }
      ],
      "stateMutability": "view",
      "type": "function"
    }
  ],
  "bytecode": "0x6101c060405269d3c21bcecceda10000006004553480156200002057600080fd5b5060405162001e0d38038062001e0d833981810160405260c08110156200004657600080fd5b508051602082015160408301516060840151608085015160a09095015193949293919290916200007f866001600160e01b03620002d216565b62000093856001600160e01b03620002d216565b620000a7846001600160e01b03620002d216565b6001600160601b0319606082811b821661012052426101005287811b82166101405286811b82166101605285901b166101a0526040805180820182526005815264504c51545960d81b602091820152815180830190925260018252603160f81b9101527ff34edf1e2aac628c79002ba72f15e12e5489ded7e0d07c9a188545a9747d938c60c08190527fc89efdaa54c0f20c7adf612882df0950f5a951637e0307cdcb4c672f298b8bc660e0819052620001696001600160e01b036200038716565b60a052620001a27f8b73c3c69bb8fe3d512ecc4cf759cc79239f7b179b0ffacaa9a75d522b39400f83836001600160e01b036200038b16565b608081815250506000620001c86002600454620003ec60201b62000adb1790919060201c565b9050620001df86826001600160e01b036200045316565b600454600090620001fb90602062000adb620003ec821b17811c565b9050620002128a826001600160e01b036200045316565b60006200024a60036200023660048054620003ec60201b62000adb1790919060201c565b6200055460201b62000b3b1790919060201c565b61018081905290506200026787826001600160e01b036200045316565b6000620002a98262000295856200029588620002956064600454620003ec60201b62000adb1790919060201c565b6200059e60201b62000b7d1790919060201c565b9050620002c087826001600160e01b036200045316565b50505050505050505050505062000747565b6001600160a01b0381166200032e576040805162461bcd60e51b815260206004820152601e60248201527f4163636f756e742063616e6e6f74206265207a65726f20616464726573730000604482015290519081900360640190fd5b803b8062000383576040805162461bcd60e51b815260206004820181905260248201527f4163636f756e7420636f64652073697a652063616e6e6f74206265207a65726f604482015290519081900360640190fd5b5050565b4690565b6000838383620003a36001600160e01b036200038716565b6040805160208082019690965280820194909452606084019290925260808301523060a0808401919091528151808403909101815260c090920190528051910120949350505050565b600082620003fd575060006200044d565b828202828482816200040b57fe5b04146200044a5760405162461bcd60e51b815260040180806020018281038252602181526020018062001dec6021913960400191505060405180910390fd5b90505b92915050565b6001600160a01b038216620004af576040805162461bcd60e51b815260206004820152601f60248201527f45524332303a206d696e7420746f20746865207a65726f206164647265737300604482015290519081900360640190fd5b620004cb81600254620005e860201b62000bbf1790919060201c565b6002556001600160a01b03821660009081526020818152604090912054620004fe91839062000bbf620005e8821b17901c565b6001600160a01b0383166000818152602081815260408083209490945583518581529351929391927fddf252ad1be2c89b69c2b068fc378daa952ba7f163c4a11628f55a4df523b3ef9281900390910190a35050565b60006200044a83836040518060400160405280601a81526020017f536166654d6174683a206469766973696f6e206279207a65726f0000000000008152506200064360201b60201c565b60006200044a83836040518060400160405280601e81526020017f536166654d6174683a207375627472616374696f6e206f766572666c6f770000815250620006ea60201b60201c565b6000828201838110156200044a576040805162461bcd60e51b815260206004820152601b60248201527f536166654d6174683a206164646974696f6e206f766572666c6f770000000000604482015290519081900360640190fd5b60008183620006d35760405162461bcd60e51b81526004018080602001828103825283818151815260200191508051906020019080838360005b83811015620006975781810151838201526020016200067d565b50505050905090810190601f168015620006c55780820380516001836020036101000a031916815260200191505b509250505060405180910390fd5b506000838581620006e057fe5b0495945050505050565b600081848411156200073f5760405162461bcd60e51b8152602060048201818152835160248401528351909283926044909101919085019080838360008315620006975781810151838201526020016200067d565b505050900390565b60805160a05160c05160e051610100516101205160601c6101405160601c6101605160601c610180516101a05160601c6115ff620007ed6000398061068b528061112b5250806106af52508061064c52806109e85280610e97528061121152508061096f5280610e5a5250806105f25280610d8a52806111055250806105ce5280610c26525080610ab0525080610a8f525080610a15525080610a4552506115ff6000f3fe608060405234801561001057600080fd5b50600436106101585760003560e01c80637ecebe00116100c3578063d505accf1161007c578063d505accf146103ac578063d874ea74146103ff578063dd62ed3e14610407578063e7c8fed414610435578063f3a2568b1461043d578063f698da251461046957610158565b80637ecebe001461031e578063811c5b4d1461034457806395d89b411461015d578063974f55901461034c578063a457c2d714610354578063a9059cbb1461038057610158565b8063395093511161011557806339509351146102905780633c84b7c2146102bc5780635462870d146102c457806354fd4d50146102e857806370a08231146102f0578063761ab22c1461031657610158565b806306fdde031461015d578063095ea7b3146101da57806310ce43bd1461021a57806318160ddd1461023457806323b872dd1461023c578063313ce56714610272575b600080fd5b610165610471565b6040805160208082528351818301528351919283929083019185019080838360005b8381101561019f578181015183820152602001610187565b50505050905090810190601f1680156101cc5780820380516001836020036101000a031916815260200191505b509250505060405180910390f35b610206600480360360408110156101f057600080fd5b506001600160a01b038135169060200135610491565b604080519115158252519081900360200190f35b6102226104bd565b60408051918252519081900360200190f35b6102226104e1565b6102066004803603606081101561025257600080fd5b506001600160a01b038135811691602081013590911690604001356104e7565b61027a610575565b6040805160ff9092168252519081900360200190f35b610206600480360360408110156102a657600080fd5b506001600160a01b03813516906020013561057a565b6102226105cc565b6102cc6105f0565b604080516001600160a01b039092168252519081900360200190f35b610165610614565b6102226004803603602081101561030657600080fd5b50356001600160a01b031661062f565b6102cc61064a565b6102226004803603602081101561033457600080fd5b50356001600160a01b031661066e565b6102cc610689565b6102226106ad565b6102066004803603604081101561036a57600080fd5b506001600160a01b0381351690602001356106d1565b6102066004803603604081101561039657600080fd5b506001600160a01b03813516906020013561073b565b6103fd600480360360e08110156103c257600080fd5b506001600160a01b03813581169160208101359091169060408101359060608101359060ff6080820135169060a08101359060c00135610776565b005b6102cc61096d565b6102226004803603604081101561041d57600080fd5b506001600160a01b0381358116916020013516610991565b6102226109bc565b6103fd6004803603604081101561045357600080fd5b506001600160a01b0381351690602001356109c4565b610222610a11565b604080518082019091526005815264504c51545960d81b60208201525b90565b600061049b610c19565b156104a8576104a8610c56565b6104b3338484610c9c565b5060015b92915050565b7f6e71edae12b1b97f4d1f60370fef10105fa2faae0126114a169c64845d6126c990565b60025490565b60006104f1610c19565b156104ff576104ff84610d88565b61050883610dfc565b610513848484610f07565b61056b843361056685604051806060016040528060288152602001611500602891396001600160a01b038a166000908152600160209081526040808320338452909152902054919063ffffffff61106316565b610c9c565b5060019392505050565b601290565b6000610584610c19565b1561059157610591610c56565b3360008181526001602090815260408083206001600160a01b03881684529091529020546104b391908590610566908663ffffffff610bbf16565b7f000000000000000000000000000000000000000000000000000000000000000090565b7f000000000000000000000000000000000000000000000000000000000000000081565b6040805180820190915260018152603160f81b602082015290565b6001600160a01b031660009081526020819052604090205490565b7f000000000000000000000000000000000000000000000000000000000000000081565b6001600160a01b031660009081526003602052604090205490565b7f000000000000000000000000000000000000000000000000000000000000000081565b7f000000000000000000000000000000000000000000000000000000000000000090565b60006106db610c19565b156106e8576106e8610c56565b6104b33384610566856040518060600160405280602581526020016115a5602591393360009081526001602090815260408083206001600160a01b038d168452909152902054919063ffffffff61106316565b60006107456110fa565b80156107545750610754610c19565b156107625761076283611129565b61076b83610dfc565b6104b3338484610f07565b428410156107c5576040805162461bcd60e51b8152602060048201526017602482015276504c5154593a206578706972656420646561646c696e6560481b604482015290519081900360640190fd5b60006107cf610a11565b6001600160a01b03808a1660008181526003602090815260408083208054600180820190925582517f6e71edae12b1b97f4d1f60370fef10105fa2faae0126114a169c64845d6126c98186015280840196909652958e166060860152608085018d905260a085019590955260c08085018c90528151808603909101815260e08501825280519083012061190160f01b6101008601526101028501969096526101228085019690965280518085039096018652610142840180825286519683019690962095839052610162840180825286905260ff8a166101828501526101a284018990526101c284018890525194955090936101e280840193601f198301929081900390910190855afa1580156108ea573d6000803e3d6000fd5b505050602060405103519050886001600160a01b0316816001600160a01b031614610957576040805162461bcd60e51b8152602060048201526018602482015277504c5154593a20696e76616c6964207369676e617475726560401b604482015290519081900360640190fd5b610962898989610c9c565b505050505050505050565b7f000000000000000000000000000000000000000000000000000000000000000081565b6001600160a01b03918216600090815260016020908152604080832093909416825291909152205490565b6301e1338081565b6109cc611206565b6109d4610c19565b156109e2576109e282610d88565b610a0d827f000000000000000000000000000000000000000000000000000000000000000083610f07565b5050565b60007f0000000000000000000000000000000000000000000000000000000000000000610a3c61126d565b1415610a6957507f000000000000000000000000000000000000000000000000000000000000000061048e565b610ad47f8b73c3c69bb8fe3d512ecc4cf759cc79239f7b179b0ffacaa9a75d522b39400f7f00000000000000000000000000000000000000000000000000000000000000007f0000000000000000000000000000000000000000000000000000000000000000611271565b905061048e565b600082610aea575060006104b7565b82820282848281610af757fe5b0414610b345760405162461bcd60e51b81526004018080602001828103825260218152602001806114df6021913960400191505060405180910390fd5b9392505050565b6000610b3483836040518060400160405280601a81526020017f536166654d6174683a206469766973696f6e206279207a65726f0000000000008152506112c7565b6000610b3483836040518060400160405280601e81526020017f536166654d6174683a207375627472616374696f6e206f766572666c6f770000815250611063565b600082820183811015610b34576040805162461bcd60e51b815260206004820152601b60248201527f536166654d6174683a206164646974696f6e206f766572666c6f770000000000604482015290519081900360640190fd5b60006301e13380610c50427f000000000000000000000000000000000000000000000000000000000000000063ffffffff610b7d16565b10905090565b610c5e6110fa565b15610c9a5760405162461bcd60e51b815260040180806020018281038252602b81526020018061146c602b913960400191505060405180910390fd5b565b6001600160a01b038316610ce15760405162461bcd60e51b81526004018080602001828103825260248152602001806115816024913960400191505060405180910390fd5b6001600160a01b038216610d265760405162461bcd60e51b81526004018080602001828103825260228152602001806113a56022913960400191505060405180910390fd5b6001600160a01b03808416600081815260016020908152604080832094871680845294825291829020859055815185815291517f8c5be1e5ebec7d5bd14f71427d1e84f3dd0314c0f7b2291e5b200ac8c7c3b9259281900390910190a3505050565b7f00000000000000000000000000000000000000000000000000000000000000006001600160a01b0316816001600160a01b03161415610df95760405162461bcd60e51b815260040180806020018281038252602b815260200180611441602b913960400191505060405180910390fd5b50565b6001600160a01b03811615801590610e1d57506001600160a01b0381163014155b610e585760405162461bcd60e51b81526004018080602001828103825260558152602001806113506055913960600191505060405180910390fd5b7f00000000000000000000000000000000000000000000000000000000000000006001600160a01b0316816001600160a01b031614158015610ecc57507f00000000000000000000000000000000000000000000000000000000000000006001600160a01b0316816001600160a01b031614155b610df95760405162461bcd60e51b81526004018080602001828103825260548152602001806113ed6054913960600191505060405180910390fd5b6001600160a01b038316610f4c5760405162461bcd60e51b815260040180806020018281038252602581526020018061155c6025913960400191505060405180910390fd5b6001600160a01b038216610f915760405162461bcd60e51b815260040180806020018281038252602381526020018061132d6023913960400191505060405180910390fd5b610fd4816040518060600160405280602681526020016113c7602691396001600160a01b038616600090815260208190526040902054919063ffffffff61106316565b6001600160a01b038085166000908152602081905260408082209390935590841681522054611009908263ffffffff610bbf16565b6001600160a01b038084166000818152602081815260409182902094909455805185815290519193928716927fddf252ad1be2c89b69c2b068fc378daa952ba7f163c4a11628f55a4df523b3ef92918290030190a3505050565b600081848411156110f25760405162461bcd60e51b81526004018080602001828103825283818151815260200191508051906020019080838360005b838110156110b757818101518382015260200161109f565b50505050905090810190601f1680156110e45780820380516001836020036101000a031916815260200191505b509250505060405180910390fd5b505050900390565b336001600160a01b037f0000000000000000000000000000000000000000000000000000000000000000161490565b7f00000000000000000000000000000000000000000000000000000000000000006001600160a01b031663bb7603f1826040518263ffffffff1660e01b815260040180826001600160a01b03166001600160a01b0316815260200191505060206040518083038186803b15801561119f57600080fd5b505afa1580156111b3573d6000803e3d6000fd5b505050506040513d60208110156111c957600080fd5b5051610df95760405162461bcd60e51b81526004018080602001828103825260488152602001806114976048913960600191505060405180910390fd5b336001600160a01b037f00000000000000000000000000000000000000000000000000000000000000001614610c9a5760405162461bcd60e51b81526004018080602001828103825260348152602001806115286034913960400191505060405180910390fd5b4690565b600083838361127e61126d565b6040805160208082019690965280820194909452606084019290925260808301523060a0808401919091528151808403909101815260c090920190528051910120949350505050565b600081836113165760405162461bcd60e51b81526020600482018181528351602484015283519092839260449091019190850190808383600083156110b757818101518382015260200161109f565b50600083858161132257fe5b049594505050505056fe45524332303a207472616e7366657220746f20746865207a65726f2061646472657373504c5154593a2043616e6e6f74207472616e7366657220746f6b656e73206469726563746c7920746f20746865204c51545920746f6b656e20636f6e7472616374206f7220746865207a65726f206164647265737345524332303a20617070726f766520746f20746865207a65726f206164647265737345524332303a207472616e7366657220616d6f756e7420657863656564732062616c616e6365504c5154593a2043616e6e6f74207472616e7366657220746f6b656e73206469726563746c7920746f2074686520636f6d6d756e6974792069737375616e6365206f72207374616b696e6720636f6e7472616374504c555344546f6b656e3a2073656e646572206d757374206e6f7420626520746865206d756c7469736967504c555344546f6b656e3a2063616c6c6572206d757374206e6f7420626520746865206d756c7469736967504c555344546f6b656e3a20726563697069656e74206d7573742062652061204c6f636b7570436f6e7472616374207265676973746572656420696e2074686520466163746f7279536166654d6174683a206d756c7469706c69636174696f6e206f766572666c6f7745524332303a207472616e7366657220616d6f756e74206578636565647320616c6c6f77616e6365504c555344546f6b656e3a2063616c6c6572206d7573742062652074686520504c5553445374616b696e6720636f6e747261637445524332303a207472616e736665722066726f6d20746865207a65726f206164647265737345524332303a20617070726f76652066726f6d20746865207a65726f206164647265737345524332303a2064656372656173656420616c6c6f77616e63652062656c6f77207a65726fa264697066735822122088b209225bae5bfd4a504ba776230ee6b8970622d360f8b8b4d2b9c80950f2b764736f6c634300060b0033536166654d6174683a206d756c7469706c69636174696f6e206f766572666c6f77",
  "linkReferences": {},
  "deployedLinkReferences": {}
}